:100000000C943A000C9457000C9457000C94570031
:100010000C9457000C9457000C9457000C94570004
:100020000C9457000C9457000C9457000C94F40057
:100030000C9457000C9457000C949D000C9457009E
:100040000C9457000C9457000C9457000C945700D4
:100050000C9457000C9457000C9457000C945700C4
:100060000C9457000C9457001F1C1F1E1F1E1F1FAF
:100070001E1F1E1F11241FBECFEFD8E0DEBFCDBF55
:1000800011E0A0E0B1E0EEE1F8E002C005900D92D1
:10009000A631B107D9F721E0A6E1B1E001C01D9278
:1000A000A432B207E1F70E946C030C940D040C9487
:1000B0000000809123012AE0622F0E94CB03EDE132
:1000C000F1E08083809123010E94CB039183809192
:1000D00022010E94CB038283809122010E94CB03E4
:1000E00093830895EF92FF920F931F93CF93DF9323
:1000F00000D01F92CDB7DEB71B821A821982CE01C3
:1001000003967C018E010F5F1F4F9E012E5F3F4FB4
:10011000AC01BC01CA010E9401038A8180932301C2
:100120008981809322010F900F900F90DF91CF91E2
:100130001F910F91FF90EF9008951F920F920FB6AD
:100140000F9211242F933F938F939F93EF93FF93DD
:1001500025B1309121013F5F81E090E002C0880F1E
:10016000991F3A95E2F78E71922F917E892BE0913B
:100170002101F0E0E35EFE4FE0819091210191309A
:1001800021F4909117019111E65F90912101911155
:1001900003C0E11101C0E4E185B9F0E0E050FF4F98
:1001A000808180958BB980911601882331F085E09C
:1001B0008A95F1F700008FEF8BB980912101833090
:1001C00019F41092210105C0809121018F5F809365
:1001D0002101FF91EF919F918F913F912F910F906E
:1001E0000FBE0F901F9018951F920F920FB60F928F
:1001F00011242F933F934F935F936F937F938F932C
:100200009F93AF93BF93EF93FF9360911801709109
:10021000190180911A0190911B012AE030E040E021
:1002200050E00E94EB03672B682B692B29F4809127
:100230001C01816080931C0160911801709119016B
:1002400080911A0190911B012EE030E040E050E0D7
:100250000E94EB03672B682B692B29F480911C010A
:10026000826080931C016091180170911901809146
:100270001A0190911B0128E230E040E050E00E941A
:10028000EB03672B682B692B31F49091170181E008
:100290008927809317018091180190911901A091ED
:1002A0001A01B0911B010196A11DB11D8093180187
:1002B00090931901A0931A01B0931B01FF91EF9144
:1002C000BF91AF919F918F917F916F915F914F916E
:1002D0003F912F910F900FBE0F901F901895EF92A6
:1002E0000F9333990CC0809123018F5F809323017A
:1002F00080912301883128F01092230102C080E010
:1003000001C081E032990CC0809122018F5F8093FF
:100310002201809122018C3310F01092220181E0A1
:1003200096B19695917021E09227909316018823BB
:1003300081F00091220120912301E12C41E061E054
:1003400081E00E946C020E9472000F91EF900C9469
:1003500059000F91EF9008951092B90080E28093B8
:10036000B800089594EA9093BC009091BC0097FF68
:10037000FCCF9091B900987F983021F0903111F026
:1003800081E008958093BB0084E88093BC00809155
:10039000BC0087FFFCCF8091B900887F883111F0C5
:1003A000803471F780E0089524EA34E844E920932A
:1003B000BC009091BC0097FFFCCF9091B900987F52
:1003C000983011F0903199F78093BB003093BC00C6
:1003D0009091BC0097FFFCCF9091B900987F90322C
:1003E00011F0983539F44093BC009091BC0094FD15
:1003F000FCCFDDCF08950C94B20184E98093BC005A
:100400008091BC0084FDFCCF08958093BB0084E8FC
:100410008093BC008091BC0087FFFCCF9091B90015
:10042000987F81E0983209F480E0089584EC80930D
:10043000BC008091BC0087FFFCCF8091BB00089579
:1004400084E88093BC008091BC0087FFFCCF809142
:10045000BB0008950E94AC0183E08A95F1F700008B
:100460000895282F6AE00E94CB03982F990F890FD7
:10047000880F820F089550E0E8E6F0E091E09617CB
:1004800030F42491420F511D9F5F3196F8CF6330B5
:1004900028F0982F937011F44F5F5F4F282F30E0B2
:1004A0006DE671E0269FC001279F900D369F900D4D
:1004B000112405962D5F3F4FB90175956795759588
:1004C00067959C01260F371FC901840F951F67E0B0
:1004D00070E00E94D7030895CF92DF92EF92FF92CF
:1004E0000F931F93CF93DF939BE39E1508F47DC07A
:1004F0000C3308F07AC0283108F077C09FEF940FD2
:100500009F3108F072C09FEF960F9C3008F06DC0CD
:10051000843608F06AC0E62FF0E0E959FF4FE49115
:10052000E41708F464C0D22E142FD62FF82E0E94A0
:100530003B02C82E80ED0E94D40180E00E9405029B
:10054000CAE08E2D6C2F0E94CB03982F990F890F34
:10055000880F8E0D0E940502802F6C2F0E94CB0306
:10056000982F990F890F880F800F0E9405028D2DFB
:100570006C2F0E94CB03982F990F890F880F8D0D38
:100580000E9405028C2D6C2F0E94CB03982F990F8F
:10059000890F880F8C0D0E940502812F6C2F0E94FD
:1005A000CB03982F990F890F880F810F0E940502A6
:1005B0008D2F6C2F0E94CB03982F990F890F880FD6
:1005C0008D0F0E9405028F2D6C2F0E94CB03982F58
:1005D000990F890F880F8F0D0E94050280E00E94FD
:1005E00005020E94FD0181E003C088E001C080E0B7
:1005F000DF91CF911F910F91FF90EF90DF90CF90FF
:1006000008957F928F929F92AF92BF92CF92DF9286
:10061000EF92FF920F931F93CF93DF93EC016B0147
:100620005A01490180ED0E94D40180E00E94050238
:100630000E94FD0181ED0E94FB010E9416028F774E
:10064000982F92959F702AEF722E979D800D1124FE
:10065000F70180830E941602982F92959F70979DB4
:10066000800D1124F80180830E941602982F929524
:100670009F70979D800D1124F40180830E941602C3
:100680000E941602982F92959F70979D800D1124BD
:10069000F50180830E941602982F92959F70979D76
:1006A000800D1124F60180830E942002982F9295DC
:1006B0009F70979D800D11248883DF91CF911F91AA
:1006C0000F91FF90EF90DF90CF90BF90AF909F90F1
:1006D0008F907F900C94FD012FEF84E39CE02150DC
:1006E00080409040E1F700C0000084B18E6184B981
:1006F0008FEF8AB91BB83B983A98399888B18E60C9
:1007000088B9F89414BC15BC16BC8CE787BD85B5B8
:10071000826085BD85B5836085BD80916E008260F5
:1007200080936E00109280001092810010928500DC
:100730001092840080E29EE4909389008093880068
:100740008091810088608093810080918100826027
:100750008093810080916F00826080936F000E947F
:100760002A02789480911C0181FF07C00E946F01CA
:1007700080911C018D7F80931C0180911C0180FF62
:10078000F1CF0E9472000E94590080911C018E7F5F
:1007900080931C01E7CF991B79E004C0991F96173D
:1007A00008F0961B881F7A95C9F780950895AA1BB3
:1007B000BB1B51E107C0AA1FBB1FA617B70710F04C
:1007C000A61BB70B881F991F5A95A9F7809590957E
:1007D000BC01CD010895A1E21A2EAA1BBB1BFD018D
:1007E0000DC0AA1FBB1FEE1FFF1FA217B307E40710
:1007F000F50720F0A21BB30BE40BF50B661F771F68
:10080000881F991F1A9469F7609570958095909547
:0E0810009B01AC01BD01CF010895F894FFCF0C
:10081E009F845DD5C6D3DB85DFD7BFA47DF5E6F318
:06082E00FBA5FFF700002E
:00000001FF
